:100000000C9495040C94DC040C94DC040C94DC0437
:100010000C94DC040C94DC040C94DC040C94DC04E0
:100020000C94DC040C94DC040C9419300C94EB302C
:100030000C94592A0C94DC040C94DC040C94DC041D
:100040000C94DC040C94DC040C94DC040C94DC04B0
:100050000C94DC040C94B22A0C94DC040C94DC04A4
:100060000C94DC040C94DC040C94DC040C94DC0490
:100070000C94DC040C94DC040C94DC040C94DC0480
:100080000C94DC040C94DC040C94DC040C94DC0470
:100090000C94DC040C94DC040C94DC040C94DC0460
:1000A0000C94DC040C94DC040C94DC040F0B050BA6
:1000B000190B610B650B650B610B650B650B3A0B3F
:1000C000650B440B4E0B650B650B650B650B610BEC
:1000D000650B650B610B650B270B650B650B5E0BE9
:1000E0005E0B5E0B5E0B5E0B5E0B5E0B5E0B5E0BC8
:1000F000630B650B0F0B020B650B650B650B650B3B
:10010000650B650B650B650B650B650B630B650B71
:10011000650B610B650B5C0B5C0B5C0B5C0B5C0B90
:100120005C0B5C0B5C0B5C0B630B27162A16321600
:1001300037163C16411646164B16501655165A16CB
:100140005F166116641667166A166D1670167216BB
:100150007716C91FC91FFB1FFB1F4620642084217F
:1001600084217120062115211521752184218421E6
:100170007E2124222422362236222D2236223622A5
:1001800036222422242232223622362232225831AA
:100190007F3177327F317732CB31EE317732453272
:1001A00054322B0014001A000900130005000D0042
:1001B0000F0018001C0033002A00E00004001500A6
:1001C000160017000A001000110008000C001200B1
:1001D0003400E1001D001B000600070019000E009E
:1001E0000B0036003700380035000000E000E30067
:1001F000E200284200002C4300002D002E003100B8
:1002000000002B0014001A000900130005000D0067
:100210000F0018001C0033002A00E3000400150042
:10022000160017000A001000110008000C00120050
:100230003400E1001D001B000600070019000E003D
:100240000B0036003700380035000000E000E20007
:10025000E300284200002C4300002D002E00310056
:10026000000029001E021F02200221022202230296
:10027000240225022602270201000100AC00AA0088
:10028000AB000100010001005000510052004F007E
:1002900001000100B600AE00B7000100010001003E
:1002A00001002F0030000100005C00000100AA00E6
:1002B000A90001000000010000002F0030000153E0
:1002C000000029001E001F00200021002200230042
:1002D000240025002600270001000100C75CC35C44
:1002E000C55CD05C010001005000510052004F007D
:1002F00001000100CA5CC25CC95C01000100010090
:1003000001002F0030000100010000000100010089
:10031000010001000000010000002F003000015327
:10032000000014050100000000000000002A2B2836
:1003300000000000000000000000000000000000BD
:1003400029000000002C1E342021222434262725D9
:100350002E362D3738271E1F202122232425263311
:1003600033362E37381F0405060708090A0B0C0D13
:100370000E0F101112131415161718191A1B1C1D25
:100380002F3130232D350405060708090A0B0C0D03
:100390000E0F101112131415161718191A1B1C1D05
:1003A0002F3130354C00000000000000000000003C
:1003B000000000000000000000000000000000003D
:1003C0000000000000000000007E0F00D4FFFFFFCF
:1003D000C7000000781E0F0500047F3F1F64321421
:1003E000783C1E1E140A052223252628292A2C2D96
:1003F0002F3032333536383A3B3D3E404243454755
:10040000494A4C4E5051535557595A5C5E6062648C
:100410006668696B6D6F71737577797B7D7F81839A
:100420008587898A8C8E90929496989A9C9E9FA19B
:10043000A3A5A7A8AAACAEAFB1B3B4B6B8B9BBBCBC
:10044000BEBFC1C2C3C5C6C7C9CACBCCCDCED0D131
:10045000D2D2D3D4D5D6D7D7D8D9D9DADADBDBDB29
:10046000DCDCDCDCDCDDDDDDDDDCDCDCDCDCDBDBCA
:10047000DBDADAD9D9D8D7D7D6D5D4D3D2D2D1D01E
:10048000CECDCCCBCAC9C7C6C5C3C2C1BFBEBCBB1B
:10049000B9B8B6B4B3B1AFAEACAAA8A7A5A3A19F93
:1004A0009E9C9A98969492908E8C8A898785838157
:1004B0007F7D7B79777573716F6D6B696866646238
:1004C000605E5C5A5957555351504E4C4A49474506
:1004D0004342403E3D3B3A3836353332302F2D2CA7
:1004E0002A292826252322FFAA7F55400001010141
:1004F00001010101010102020202020202020203E1
:1005000003030303030303040404040404040505B0
:100510000505050606060606070707070708080873
:1005200008090909090A0A0A0B0B0B0C0C0C0D0D22
:100530000D0E0E0E0F0F0F101011111112121313BA
:100540001414151516161717181819191A1A1B1B33
:100550001C1D1D1E1E1F202021222223242425268F
:1005600026272829292A2B2C2D2D2E2F30313232C7
:10057000333435363738393A3B3C3D3E3F404142D3
:10058000434445464748494A4C4D4E4F50515354B9
:10059000555658595A5B5D5E5F616264656668696D
:1005A0006B6C6D6F7072737577787A7B7D7E8082ED
:1005B000838587888A8C8E8F91939596989A9C9E36
:1005C000A0A2A3A5A7A9ABADAFB1B3B5B7BABCBE46
:1005D000C0C2C4C6C9CBCDCFD1D4D6D8DBDDDFE213
:1005E000E4E7E9EBEEF0F3F5F8FAFDFFFD377A58B2
:1005F0005A000004E6D6B4460200210116000000AD
:10060000742FE5A3E00267011B5D003D8889C65495
:1006100036C3174FE4E2A73E7FE526006AD6C64DF3
:100620006DA19EC65954C32B04E1E320DB3FE6AA2B
:10063000367EA1935B71B253E5F696902F780674DF
:10064000659A40054CA57AEAF31015853A3037E7EC
:1006500056EE1E071FE8E1C4775E9DB2BEC8F3AC3C
:1006600075A5DFCED9115F093430471175BFD13977
:100670009A2438B81E6DACBA69D8C4DF1316BD6AA7
:10068000EE98A8B8EB11983B9B2467C516DEBEC454
:10069000581E91FAE013BB11C1897AA76D2661E952
:1006A0006DF3B2AD1F1A4F82F34F26ABCDFA5EB792
:1006B00040DEC7822FF9C7B03B2AA184A34363EB76
:1006C000BF4D64089A98F6F5A30BCCF6BED87B41D3
:1006D0005F8CA2F51594AB12B16B02A91D086C28B2
:1006E000CD6523B21C444BC9D168B492A84886EDAD
:1006F000F2F0DE9875346B03229289CF35C1C57351
:10070000EE100B5E2AFC2123BFC0D865E7AF0F9D1A
:10071000BBDCE277D265679A17F36CE9362D5A9AFB
:1007200000BFEE00593200006C0BE0F3524595C853
:100730000001B702E80400007B6598AAB1C467FB1A
:10074000020000000004595A1C0376006900610091
:100750006C003A006600360034006300320062002C
:1007600033006300000018034D006F0072006E003C
:1007700069006E0067007300740061007200000081
:1007800018035300740061007200200042006F00E3
:100790006100720064007300000004030904090290
:1007A0005B00030100A0FA0904000001030101003D
:1007B0000921110100012240000705810308000AF8
:1007C00009040100020300000009211101000122B7
:1007D0002200070582032000010705030320000112
:1007E0000904020001030000000921110100012297
:1007F000BC000705840320000A120110010000005C
:1008000008EDFE60600100010203010660FF09615E
:10081000A1010962150026FF0095207508810209D3
:1008200063150026FF00952075089102C005010997
:1008300002A10185020901A1000509190129051577
:10084000002501950575018102950175038101055A
:1008500001093009311581257F9502750881060946
:10086000381581257F950175088106050C0A380227
:100870001581257F950175088106C0C00501098095
:10088000A101850319012AB700150126B7009501BA
:1008900075108100C0050C0901A101850419012A08
:1008A000A002150126A002950175108100C0050166
:1008B0000906A1018505050719E029E715002501AD
:1008C0009508750181020507190029EF150025011A
:1008D00095F0750181020508190129059505750135
:1008E0009102950175039101C005010906A1010559
:1008F0000719E029E7150025019508750181029582
:1009000001750881010507190029FF150026FF0060
:1009100095067508810005081901290595057501D9
:100920009102950175039101C00011241FBECFEF04
:10093000DAE0DEBFCDBF04B603FE27C080912303FB
:1009400090912403A0912503B09126038730904B0A
:10095000A740B04BD1F410922303109224031092BD
:1009600025031092260314BE84B7877F84BF0FB679
:10097000F894A8958091600088618093600010923F
:1009800060000FBEE0E0F8E3099511E0A0E0B1E0FF
:10099000EEE5F8E602C005900D92AC3EB107D9F73E
:1009A00023E0ACEEB1E001C01D92A332B207E1F743
:1009B0000E94D22C0C942D340C94000081E00895F8
:1009C00081E008950C94E00408950C94E4041F93CE
:1009D000CF93DF9300D000D01F92CDB7DEB749830D
:1009E0005A836B833091440289819A81311114C0FA
:1009F000662359F0222349F00E945D27182F682FA3
:100A000089819A810E94062703C00E943127182FEE
:100A100069817A81812F04C00E945D2769817A8172
:100A20000F900F900F900F900F90DF91CF911F912B
:100A30000C94541AFC01262F4081518162817381EC
:100A400084810C94E704CF93DF93EC0160E00E9473
:100A50001A05BE01DF91CF910C94E5048F929F920D
:100A6000AF92BF92CF92DF92EF92FF920F931F93BC
:100A70006B017C0181E090E0A0E0B0E04C015D0101
:100A800004C0880C991CAA1CBB1C4A95D2F7AC0167
:100A9000BD0104C0440F551F661F771F2A95D2F76A
:100AA000482959296A297B2904C0880F991FAA1F40
:100AB000BB1F0A95D2F78A019B010C211D212E2113
:100AC0003F21401751076207730739F4BC01CD017C
:100AD0006C297D298E299F290AC080959095A09523
:100AE000B095BC01CD016C217D218E219F211F91EC
:100AF0000F91FF90EF90DF90CF90BF90AF909F90BD
:100B00008F9008950F93382F262F60919B0270913C
:100B10009C0280919D0290919E02042F432F0E947F
:100B20002E050F910C9442260E94F02A0E949728CD
:100B3000811102C00E943E290C94EF080C94EB082E
:100B400008950E9412220E94A0052FEF84E39CE0EA
:100B5000215080409040E1F700C000000C94D82A5A
:100B60000F931F93CF93DF93EC0161E00E941A056E
:100B70008C01BE010E9409178823A9F1BE01C8019A
:100B80000E94E204882379F1BE01C8010E948F1BF4
:100B9000882349F1BE01C8010E94E11B882319F195
:100BA000BE01C8010E940C1D8823E9F0BE01C801E6
:100BB0000E9410168823B9F08A81882369F00115F4
:100BC0008CE5180731F00E3D1C4531F40E943E299A
:100BD0000AC00E94A10507C0CE01DF91CF911F91ED
:100BE0000F910C94DE0480E0DF91CF911F910F9163
:100BF0000895DF92EF92FF920F931F93CF93DF93AD
:100C0000E82FF0E0EB5DFC4FD490282F2695269539
:100C1000269530E0F901EB53FC4F0491877010E00A
:100C2000082E02C0159507950A94E2F70170112766
:100C3000F901EB54FC4FE490F12C082E02C0F5941E
:100C4000E7940A94E2F791E0E922FF24F901EB55D9
:100C5000FC4FC491D0E002C0D595C7958A95E2F7C4
:100C6000C170DD270115110519F081EE0E94D91E12
:100C7000E114F10419F086EE0E94D91E8D2D0E9418
:100C80007F1FEF2819F086EE0E94341F012B19F008
:100C900081EE0E94341FCD2B51F08CE2DF91CF9179
:100CA0001F910F91FF90EF90DF900C947F1FDF91C9
:100CB000CF911F910F91FF90EF90DF900895EF92E9
:100CC000FF920F931F93CF93DF93EC01162F0AE04F
:100CD0008881882309F455C0813009F043C0898197
:100CE000813041F47E0182E0E80EF11C8A810E948D
:100CF0007F1F09C0823049F47E01E2E0EE0EF11C54
:100D00008A810E94D91EE7012FC0833041F47E0101
:100D1000F2E0EF0EF11C8A810E94341FF4CF843080
:100D200011F0219621C02A81229680E090E030E0E7
:100D3000205331092A30310558F4089FA001099F3A
:100D4000500D1124C901840F951F21962881EFCFE2
:100D5000009751F0EFE9FFE03197F1F700C0000094
:100D60000197F6CF0E94F9052196812F882309F477
:100D7000AFCFEFE9FFE03197F1F700C000008150FD
:100D8000F5CFDF91CF911F910F91FF90EF900895D4
:100D900060E00C945F0608950C94CB0681E0089502
:100DA0000C94CE06CF93C82F0E94CC068C2F0E94A5
:100DB000D006CF91089580E090E008950895880FBF
:100DC000991FFC01EB52FC4F859194910895CF93AC
:100DD000DF930E94541A0E94FF07EC018115904591
:100DE00008F041C0C11580E4D80708F0D1C0C83E62
:100DF000D10510F5C03ED10508F0FDC0C83AD105B7
:100E000078F4C53AD10508F0A2C0C130D10509F483
:100E1000F2C008F4EEC0C430D10508F0ECC0E9C05F
:100E2000CF3BD10508F49BC0C03CD10508F4E1C01C
:100E3000CE01805C91099EC0C11590E2D90758F49B
:100E4000C11521E0D20708F0D6C0C03FD10508F493
:100E5000D0C0D065D0C0C11580E3D80708F08EC0DF
:100E6000CE019F7087C0C11595E5D90708F043C032
:100E7000C11524E5D20708F0A2C0C11582E5D80744
:100E800008F5C11591E5D90708F085C0CE0174E0D9
:100E9000969587957A95E1F783709C2F937021E062
:100EA00030E002C0220F331F9A95E2F73C68382BDE
:100EB000CF70C695C69580E2C89FE0011124C22B71
:100EC000D32B99C09E01237033278C2F869586954E
:100ED000C115D34508F064C0C1E0D0E002C0CC0F1A
:100EE000DD1F2A95E2F720E2829FC0011124C82B62
:100EF000D92BDC6880C0C11529E5D207A0F4C11543
:100F000088E5D80708F060C0C11596E5D90708F054
:100F100070C08C2F0E9493088F71C82FD0E0DC2FF7
:100F2000CC27D06268C0C1152AE5D20708F451C0A9
:100F3000CE0190568115904208F05BC08D2F8F71C5
:100F40000E949308DD27D0628F71D82B54C0C55AF8
:100F5000D0E0CC59DE4FC881D0E0D0644CC0C85A34
:100F6000D0E0CC0FDD1FCA5CDE4F0990D881C02DC8
:100F7000D46441C00E94DF06EC013DC0CE01992738
:100F8000D3FF03C0EC01D86C36C0EC01D06C33C089
:100F9000DF70D06A30C0DC2FCC27C16FD06A2BC085
:100FA000C1E0D0E002C0CC0FDD1F2A95E2F720E2BD
:100FB000829FC0011124C82BD92BDA681CC0DC2FFA
:100FC000CC27C46FD06A17C0DC2FCC27C06FD06A83
:100FD00012C08C2F8F700E94930894E0D695C7950D
:100FE0009A95E1F7CF70D0E0DC2FCC27D069C82BE1
:100FF00002C0C0E0D0E0CE01DF91CF9108958238E9
:10100000910569F1B0F48133910509F46DC048F49C
:101010008932910509F463C08A32910509F469C0E7
:1010200008958533910509F455C089339105B9F0C8
:101030000895833E910569F138F4803E9105B1F041
:10104000823E910509F10895863E9105A9F1873EFA
:101050009105B9F1843E910509F064C023C0209147
:10106000140320FD4FC021FD4DC00895809114034D
:1010700080FD44C08091150380FF44C0809114031B
:1010800084FD42C083EE4DC08091140382FF38C0BE
:10109000F5CF8091140382FD33C08091150380FD4C
:1010A00031C0ECCF8091150381FF32C080911403D1
:1010B00084FD2AC087EE35C08091140383FF26C0CB
:1010C000F5CF8091140383FD21C08091150381FD2C
:1010D0001FC0ECCF8091140385FD1CC01DC0809102
:1010E000140385FD19C016C08091140386FD16C037
:1010F00017C08091140386FD13C010C089E311C08E
:1011000082EE0FC080EE0DC080E00BC086EE09C0FD
:1011100084EE07C089E205C085E303C08AE201C00E
:1011200081E390E008959091140392FF0DC0282F61
:101130002871283019F4877F846006C0282F247115
:10114000243011F48B7F886093FF0DC0282F287105
:10115000283119F4877E846106C0282F2471243138
:1011600011F48B7E88612091150320FF0DC0382F6C
:101170003871383019F4877F816006C0382F31719B
:10118000313011F48E7F886021FF0DC0282F287127
:10119000283119F4877E816106C0282F2171213101
:1011A00011F48E7E886194FD877E0895E82FF0E02B
:1011B000EE0FFF1FEC50FD4F80819181089508953F
:1011C00080EA8A95F1F7089500C008950C94E0082C
:1011D00008950C94E8080C94E9080C94E8080C9421
:1011E000ED08F894E82FE295EF70F0E031A1282F98
:1011F0002F7081E090E001C0880F2A95EAF7982FC0
:101200009095932391A392A1892B82A3789408951A
:101210000F931F93CF93DF9381E90E94F10885EF2D
:101220000E94F10880E90E94F10884EF0E94F10811
:10123000C7E6D1E003E711E089910E94F1080C179D
:101240001D07D1F71092ED021092EC021092F502F8
:101250001092F4021092EF021092EE021092F70236
:101260001092F6021092F1021092F0021092F9021E
:101270001092F8021092F3021092F2021092FB0206
:101280001092FA0284E00E94DE09DF91CF911F9153
:101290000F910C9494057F928F929F92AF92BF9280
:1012A000CF92DF92EF92FF920F931F93CF93DF9332
:1012B0000CEE12E083E7E82E81E0F82EC0E0D0E0EB
:1012C000712CAA24A394B12C4701F7018081F894D2
:1012D000E82FE295EF70F0E021A18F70A50102C028
:1012E000440F551F8A95E2F7CA01922F982B91A3BC
:1012F00092A18095892382A378940E94E408E7E66E
:10130000F1E020E030E0C12CD12C4191A42FA29536
:10131000AF70B0E090968C9190E04F7002C09595C0
:1013200087954A95E2F780FD08C0C501022E02C0EC
:10133000880F991F0A94E2F702C080E090E0C82A63
:10134000D92A2F5F3F4F2C303105F9F65FEFE51AB0
:10135000F50AF40180810E94F108C330D10511F033
:101360000E94E608F80180819181C816D90621F013
:10137000D182C08281E001C080E0782A21960E5F90
:101380001F4FC430D10509F09FCF272D44E064EFF3
:1013900072E08CEE92E00E94DF090E949E05872D8C
:1013A000DF91CF911F910F91FF90EF90DF90CF9041
:1013B000BF90AF909F908F907F9008950895FF9277
:1013C0000F931F93CF93DF93F82E092F162FD72F4C
:1013D000C42F222349F081E08093F0010E948B2AE0
:1013E0009093EF018093EE018091F0018823D9F072
:1013F0008091EE019091EF010E94A32A069798F048
:10140000EF2DF02FA12FBD2F80E090E04C2F50E06A
:101410008417950734F4219131912D933D930196D2
:10142000F7CF1092F001DF91CF911F910F91FF90B4
:101430000895833081F128F4813059F08230D1F061
:101440000895853009F449C0B8F1863009F456C0D2
:10145000089580910B01262F30E0280F311D2F3F7A
:10146000310524F4680F60930B0108958FEF80938A
:101470000B01089580910A01262F30E0280F311DBD
:101480002F3F310524F4680F60930A0108958FEF10
:1014900080930A01089580910901262F30E0280FDA
:1014A000311D2F3F310524F4680F60930901089521
:1014B0008FEF80930901089580910801262F30E075
:1014C000280F311D2F3F310524F4680F6093080168
:1014D00008958FEF80930801089580910501262FCC
:1014E00030E0280F311D2F3F310524F4680F609341
:1014F000050108958FEF80930501089580910401FF
:10150000262F30E0280F311D2F3F310524F4680FBE
:101510006093040108958FEF809304010895833050
:1015200011F128F4813049F0823091F0089585302E
:1015300081F120F18630C1F1089580910B01681787
:1015400020F4861B80930B01089510920B010895DF
:1015500080910A01681720F4861B80930A01089580
:1015600010920A01089580910901681720F4861BE2
:10157000809309010895109209010895809108014E
:10158000681720F4861B80930801089510920801C3
:10159000089580910501681720F4861B809305014A
:1015A000089510920501089580910401681720F4B0
:1015B000861B8093040108951092040108950F93EF
:1015C0001F9341E050E060E070E08A019B0104C09D
:1015D000000F111F221F331F8A95D2F7C901B801CE
:1015E0000E9408261F910F910C941222482F50E060
:1015F000FA013597EF33F10508F067C0EA5AFF4F5B
:101600000C940F330E943E295CC08091C802817FF8
:101610008E7F8093C80281E08093F20108958091CB
:101620001F0190912001892B09F44BC00E94A10554
:1016300048C08091C802982F9095917090FB80F9D6
:101640008093C80291113DC0897F877F10C080912F
:10165000C80281FB222720F991E0922790FB81F9B3
:101660008093C802992369F18091C80281608093B8
:10167000C80227C08091C80282FB222720F991E08E
:10168000922790FB82F9ECCF8091C80283FB22273E
:1016900020F991E0922790FB83F9E2CF0E94122279
:1016A0008091140387FB222720F991E0922790FB79
:1016B00087F98093140305C0895301C08D510E949E
:1016C000DF0A81E0089580E0FACF80E0089580E0AD
:1016D00008950C94670B8E518A3030F4E82FF0E0B7
:1016E000E958FE4F8081089580E00895CF93C82F78
:1016F0008091F201813051F018F0823099F17DC073
:101700000E94DE27823209F07AC004C00E94DE27E0
:10171000823261F48C2F0E94690B811104C08C2FDE
:101720000E94F60A1DC081E090E01AC08C2F0E9432
:10173000670B811114C0C43179F048F4CB3079F0D3
:10174000C03109F060C082E08093F20108C0C93264
:1017500019F0C83321F057C01092F20154C081E053
:10176000817053C0C93289F118F5C43171F1B0F4F8
:10177000C73009F046C08EE180930B0182E380936D
:101780000A018AE08093090184E18093080188E0DE
:101790008093050188E28093040133C082EE8C0FB0
:1017A000863078F58C2F0E946B0B8093F10129C055
:1017B000CE34E9F020F4CB3421F56AE013C0C13512
:1017C00079F0C235F1F461E00DC08091F101882318
:1017D00019F01092F10115C081E08093F20115C05B
:1017E00061E006C08091F1010E94190A0AC06AE016
:1017F0008091F1010E948F0A04C01092F20180E0F2
:1018000004C081E002C080E0ABCFCF910895809109
:10181000F90180FF0BC06091090185E0689FB0016C
:10182000112475956795759567952BC081FF09C043
:101830006091090185E0689FB00111247595679555
:1018400020C082FF07C06091090185E0689FB00158
:10185000112417C09091F8019923D1F060910801EB
:10186000961788F72091090185E0289F900111249F
:10187000929FA001939F500D112470E0CA010E9415
:10188000D9326038710540F46115710519F406C04C
:1018900065E070E0862F08958FE7089581E0089550
:1018A0008091F90180FF08C06091050170E0759595
:1018B00067957595679521C081FF06C06091050108
:1018C00070E07595679519C082FF04C060910501AD
:1018D00070E010C09091F701992399F06091040194
:1018E0009617A0F780910501899FC001112470E02F
:1018F0000E94D9326038710540F46115710519F400
:1019000006C061E070E0862F08958FE7089581E0BA
:101910000895803F21F40E94070C819504C0813F07
:1019200029F40E94070C8093FD010895823F21F461
:101930000E94070C819504C0833F29F40E94070C84
:101940008093FC010895893F19F40E94500C05C052
:101950008A3F31F40E94500C81958093FE010895D6
:101960008B3F21F40E94500C819504C08C3F29F4D8
:101970000E94500C8093FF010895843F21F48091D0
:10198000FB01816017C0853F21F48091FB018260DB
:1019900011C0863F21F48091FB0184600BC0873F1A
:1019A00021F48091FB01886005C0883F31F480916B
:1019B000FB0180618093FB0108958D3F21F48091AC
:1019C000F90181600BC08E3F21F48091F9018260A2
:1019D00005C08F3F29F48091F90184608093F9015B
:1019E0000895803F39F48091FD0187FF6AC010920D
:1019F000FD0167C0813F29F48091FD011816BCF3F9
:101A000060C09091FC01823F29F497FF5AC0109268
:101A1000FC0157C0833F19F41916CCF352C09091C2
:101A2000FE01893F31F419160CF04BC01092FE01F3
:101A300048C08A3F19F497FF44C0F8CF8B3F39F470
:101A40008091FF0187FF3DC01092FF013AC08C3F9B
:101A500029F48091FF011816BCF333C0843F21F4B0
:101A60008091FB018E7F17C0853F21F48091FB019F
:101A70008D7F11C0863F21F48091FB018B7F0BC0CD
:101A8000873F21F48091FB01877F05C0883F31F4B7
:101A90008091FB018F7E8093FB0113C08D3F21F469
:101AA0008091F9018E7F0BC08E3F21F48091F90166
:101AB0008D7F05C08F3F29F48091F9018B7F809342
:101AC000F9018091FC01811106C08091FD01811115
:101AD00002C01092F8018091FE01811106C0809130
:101AE000FF01811102C01092F70108950E948B2A14
:101AF0002091FC01211104C02091FD01222321F03D
:101B00009093F6018093F5012091FE01211104C00C
:101B10002091FF01222321F09093F4018093F3019F
:101B20008AEF91E00C94681DEF92FF920F931F9340
:101B3000CF93DF9300D000D000D0CDB7DEB786E0E2
:101B4000EAEFF1E0DE01119601900D928A95E1F73E
:101B5000E090FC01F090FD010091FE011091FF0169
:101B60001092FC011092FD011092FE011092FF01F3
:101B7000E11003C0FF2009F45DC08091F501909150
:101B8000F6010E94A32AAC019091F801992339F043
:101B900020910A0130E02417350758F04BC02091FE
:101BA0000B018AE0289F900111242417350718F0B3
:101BB00041C09F3F19F09F5F9093F801EE2061F0C4
:101BC0000E94070C1E1414F09FEF01C091E0989F33
:101BD000902D11249093FC01FF2061F00E94070CCE
:101BE0001F1414F09FEF01C091E0989F902D1124D5
:101BF0009093FD013091FC013323E1F02091FD0130
:101C00002223C1F045EB3403C0011124992319F0BC
:101C10009093FC0103C081E08093FC0135EB23032A
:101C2000C0011124992319F09093FD0103C081E0B4
:101C30008093FD01011103C0112309F45DC080915F
:101C4000F3019091F4010E94A32AAC019091F70155
:101C5000992339F02091060130E02417350758F018
:101C60004BC0209107018AE0289F9001112424177E
:101C7000350718F041C09F3F19F09F5F9093F7011F
:101C8000002361F00E94500C101614F09FEF01C069
:101C900091E0989F902D11249093FE01112361F003
:101CA0000E94500C111614F09FEF01C091E0989F14
:101CB000902D11249093FF013091FE013323E1F028
:101CC0002091FF012223C1F045EB3403C001112410
:101CD000992319F09093FE0103C081E08093FE01E7
:101CE00035EB2303C0011124992319F09093FF01D0
:101CF00003C081E08093FF018091FC0181110BC042
:101D00008091FD01811107C08091FE01811103C006
:101D10008091FF0181110E94760DEB82FC820D8380
:101D20001E8386E0FE013196AAEFB1E001900D928C
:101D30008A95E1F726960FB6F894DEBF0FBECDBFA9
:101D4000DF91CF911F910F91FF90EF900895EAEFEF
:101D5000F1E086E0DF011D928A95E9F71092F80123
:101D60001092F7011092F9010895EF92FF920F93EC
:101D70001F93CF93DF938B01682F11110AC0442367
:101D800029F0E82FF0E0E451FB4F6491762F862F85
:101D900075C0212F30E0E82FF0E0442321F0E4511A
:101DA000FB4FE491F0E046E0049FC0011124CFEF27
:101DB000D0E0BE010E94C5324BEA4603C001479FF6
:101DC000900D1124800F911D800F911D982F990F58
:101DD000890FAE01421B530B4E9FD0014F9FB00D98
:101DE0005E9FB00D11249B2F189FA0011124452F39
:101DF00055278E01041B150B0E9FA0010F9F500D40
:101E00001E9F500D11247E01E81AF108E29E800108
:101E1000E39E100DF29E100D1124212F3327C21BBB
:101E2000D30BCE9F9001CF9F300DDE9F300D11243C
:101E300062307105A9F048F46115710569F06130EF
:101E40007105C9F48B2F752F0DC06430710581F0B9
:101E500058F06630710579F47E2F8B2F932F0DC0CB
:101E6000832F7B2F9E2F09C08E2F7B2F952F05C090
:101E70008E2F732F02C07E2F852F692FDF91CF9178
:101E80001F910F91FF90EF90089541E00E94B50ED1
:101E9000089508950E94450F0895CF93DF93762FFC
:101EA000E901682F842F0E944A0F798368838A830F
:101EB000DF91CF9108958091FC02282F269530E084
:101EC0002115310519F48170826005C02B3231056E
:101ED00024F0817084658093FC02089588E090E08E
:101EE0000C94CE33CF92DF92EF92FF926B017C0184
:101EF0000E945B0FB701A60188E090E0FF90EF9091
:101F0000DF90CF900C94EC336091FC027091FD0255
:101F10008091FE029091FF020C94720FECEFF2E0C0
:101F200083E0808311828FEF8283838314826081B8
:101F30007181828193810C94720F8091FC0280FFE9
:101F400002C08695089580E0089590910003933033
:101F500018F49F5F90930003882351F06091FC0276
:101F60007091FD028091FE029091FF020C94720F1D
:101F7000089581E00C94A50F90910003992319F026
:101F8000915090930003882351F06091FC0270916E
:101F9000FD028091FE029091FF020C94720F089551
:101FA00081E00C94BC0F809100030895809300039E
:101FB000662351F06091FC027091FD028091FE0257
:101FC0009091FF020C94720F089560E00C94D60F6C
:101FD0008091FD0208958091FE0208958091FF0294
:101FE000089570E00C948116609110018091FC02BC
:101FF00080FF0AC080910F0123E0829FC00111245D
:102000008F5F9C4F0C94F10F809111019091120100
:10201000891780F7E82FF0E09F01220F331FE20FAE
:10202000F31FEF5FFC4F1182108212828F5FF0CF9F
:102030009091FC0290FF16C0909111012091120125
:10204000921770F4E92FF0E0DF01AA0FBB1FEA0F2F
:10205000FB1FEF5FFC4F8183608342839F5FF0CF64
:102060000C94F40F0895CF93DF9300D01F92CDB757
:10207000DEB79091FC0290FF0AC09E012F5F3F4F98
:102080000E944D0F4B8169818A810E9418100F9028
:102090000F900F90DF91CF910895CF93DF93EC01D4
:1020A000EC81F0E0E951FC4F4491ECEFF2E0628109
:1020B00081810E9433108C818F5F8C83DF91CF915F
:1020C0000895CF93DF93EC01ECEFF2E0438162815E
:1020D0008C810E9433108C818F5F8C83DF91CF9134
:1020E00008950F931F93CF93DF9300D01F92CDB726
:1020F000DEB78C018091000281110AC09E012F5F22
:102100003F4F4FEF6FEF0E944D0F8A818093000287
:10211000F8018481813051F028F0823061F44091DF
:1021200000020AC08091000240E007C060910002F6
:1021300040E080E003C040E080E060E00E941810D2
:10214000F801848190E0019663E070E00E94D9324A
:1021500084830F900F900F90DF91CF911F910F917B
:102160000895AF92BF92CF92DF92EF92FF920F93BA
:102170001F93CF93DF9300D01F92CDB7DEB7182FF8
:10218000F62E042FE22E9091FC0290FF6DC0E92FF5
:10219000E695AE2FB0E0AF57BE4F8C9180932302EF
:1021A0009E7F923061F49E012F5F3F4F812F0E94EE
:1021B0004D0F4B8169818A810E94181043C0823083
:1021C00019F40091FF023EC0863019F41091FD020F
:1021D00039C08930D9F38931A9F5E9518E2F817041
:1021E000D82EE695F0E0E951FB4FA590B490C12CB4
:1021F000BB2460911301C61618F52C2D30E0A29E69
:10220000C001A39E900DB29E900D112470E00E941B
:10221000C532812FD11002C0860F01C0861B90915C
:102220001101290F311DA901440F551F240F351F1E
:102230002F5F3C4F402F6F2D0E944D0FC394D9CF7D
:102240000E94F40F1093FD02F092FE020093FF0231
:10225000EE2051F06091FC027091FD028091FE022F
:102260009091FF020E94720F0F900F900F90DF91DC
:10227000CF911F910F91FF90EF90DF90CF90BF9083
:10228000AF900895ECEFF2E09181282F43816281B5
:1022900088E0890F0C94B11081E00C944211ECEFAE
:1022A000F2E09181282F4381628188EF890F0C949D
:1022B000B11081E00C944F11ECEFF2E0628121E16A
:1022C000620F08F46FEF282F438181810C94B110C5
:1022D00081E00C945C11ECEFF2E0628121E1621B81
:1022E00008F460E0282F438181810C94B11081E0D3
:1022F0000C946B11ECEFF2E0438121E1420F08F402
:102300004FEF282F628181810C94B11081E00C94F1
:102310007A11ECEFF2E0438121E1421B08F440E046
:10232000282F628181810C94B11081E00C94891175
:1023300020E00C94B110FF920F931F93CF93DF9383
:10234000EC01F12C0FEF10E060911301F616F0F4A0
:10235000809111012F2D30E0280F311DC901880F08
:10236000991F280F391F2F5F3C4F70E0C8010E9452
:10237000D932962F8C814091FF026091FE02F99E26
:10238000800D11240E944D0FF394DECF0E94F40FB4
:102390009A818C8190FF02C08F5F01C081508C8335
:1023A000DF91CF911F910F91FF900895AF92BF924F
:1023B000CF92DF92EF92FF920F931F93CF93DF9311
:1023C000FC01828180FF02C00FEF01C001E010E03C
:1023D00045E0A42E80911301181708F043C08091A6
:1023E0001101C12ED12CE601C80FD11DCE01880FDD
:1023F000991FC80FD91FCF5FDC4F198218821A822C
:1024000034E0E32EF12CB12C809102028B0D86304A
:102410002CF06A2D0E94B732892F05C087FF03C0B8
:1024200090911301890F082E000C990BC816D9063C
:1024300091F48091FF028E9DA0018F9D500D11247B
:1024400055954795559547959E016091FE0280915F
:10245000FD020E944D0FB00EF1E0EF1AF108A1F657
:102460001F5FB8CF0E94F40F80910202013031F457
:10247000811102C080911301815007C090E0019644
:102480006091130170E00E94D93280930202DF91C3
:10249000CF911F910F91FF90EF90DF90CF90BF9061
:1024A000AF900895CF9380911101909112018917F7
:1024B00070F4E82FF0E09F01220F331FE20FF31FAB
:1024C000EF5FFC4F1182108212828F5FF0CFC0E06D
:1024D00060911301C617C0F5EC2FF0E070E0CF015A
:1024E0000E94D93220911101820F20910102022E07
:1024F000000C330B90E0E217F307CCF020910E01B3
:10250000022E000C330B2E173F078CF09C01220F7C
:10251000331F820F931F9C012F5F3C4F4091FF029E
:102520006091FE028091FD020E944D0F0BC0FC01E4
:10253000EE0FFF1F8E0F9F1FFC01EF5FFC4F1182FC
:1025400010821282CF5FC4CF0E94F40F20910D0140
:1025500080910102820F8093010290910E01920FEF
:1025600090930E0119165CF4082E000C990B409103
:10257000130150E041505109841795071CF0219533
:1025800020930D01CF9108958F929F92AF92BF92A9
:10259000CF92DF92EF92FF920F931F93CF93DF932F
:1025A0008C01FC014481C42FD0E09E01DE010E9419
:1025B00024339B01AC010E943A336B017C01E0E2C1
:1025C000F0E0EC1BFD0BA5E5B0E09B01AC010E9427
:1025D0003A334B015C019F01DF010E941C339B01D8
:1025E000AC010E9445339B01AC012C0D3D1D4E1DDD
:1025F0005F1DC501B4010E94ED32C22FD22F2A32D5
:1026000028F4F3E02F9F900111240DC025E530E060
:102610002C1B3109C901880F991F280F391F37FF5B
:1026200002C02F5F3F4F35952795C22FC095F12CE3
:1026300085E5E82EED1A80911301F816C8F4F1FC37
:1026400002C08E2D01C08D2F909111012F2D30E0F1
:10265000290F311DA901440F551F240F351F2F5F6E
:102660003C4F4C2F6091FE020E944D0FF394E3CF3C
:102670000E94F40FF8018481811102C091E003C02F
:10268000803219F49FEF90930C0190910C01890F07
:10269000F8018483DF91CF911F910F91FF90EF900C
:1026A000DF90CF90BF90AF909F908F9008950F9341
:1026B0001F93CF93DF93EC0100E010E080911301B2
:1026C000282F30E00217130724F59091110198018B
:1026D000290F311DA901440F551F240F351F2F5FEE
:1026E0003C4F869590E04C81081719071CF4442351
:1026F00031F002C0411103C04091FF0201C040E02F
:102700006091FE028091FD020E944D0F0F5F1F4FEE
:10271000D5CF0E94F40F8C8190E0019681709927AB
:102720008C83DF91CF911F910F9108957F928F92AB
:102730009F92AF92BF92CF92DF92EF92FF920F9350
:102740001F93CF93DF93FC018280748081E08483A8
:10275000E7EEF3E09490E6E6F4E0E491A12CF5E0F6
:10276000BF2ECC24CA94D12CE9190E2F10E08091F1
:102770001301A81608F0A2C0EA2CF12C22E02815BB
:1027800068F0BE9CF001BF9CF00D1124ED5FFD4F81
:102790008091FD0280838091FE02818371100AC0C6
:1027A000BE9CF001BF9CF00D1124ED5FFD4F138224
:1027B00012826AC0BE9CE001BF9CD00D1124CD5F87
:1027C000DD4F8B818823F9F081508B832FEF829F1F
:1027D000C00111246C8170E00E94C532FB01FF270B
:1027E000E951FC4F8491E82FE9192FEFE29FC001D6
:1027F0001124B8010E94C5328091FF02689FB00188
:1028000011247A8341C00E9499332091FF022695BA
:10281000215830E0A901440F551F322F2227240FE1
:10282000351F232F33278217930774F582E088150D
:1028300088F40E949933B6010E94D93288830E949D
:1028400099332091FE022695622F70E00E94D932C2
:10285000280F2983BE9CF001BF9CF00D1124ED5F71
:10286000FD4F12828091FF02843120F0893C18F0E4
:1028700088EC01C084E1BE9CF001BF9CF00D1124E6
:10288000ED5FFD4F84838383809111019701280FB1
:10289000311DC901880F991F280F391F2F5F3C4F29
:1028A000BE9CF001BF9CF00D1124ED5FFD4F4281F5
:1028B000618180810E944D0FA39459CFDF91CF9108
:1028C0001F910F91FF90EF90DF90CF90BF90AF904E
:1028D0009F908F907F900C94F40FECEFF2E080814A
:1028E0008E7F808360817181828193810E94720FCB
:1028F000109224022FEF80E792E021508040904018
:10290000E1F700C000000C94F40FECEFF2E08081DE
:102910008E7F8083109224022FEF80E792E0215077
:1029200080409040E1F700C000000C94F40F6091EB
:10293000FC02669570E04BE050E084E191E00E947B
:10294000B233892B19F481E0809324020E948B2AF0
:1029500090931D0280931C0208959091FC0290FFB9
:1029600035C09170811102C0926006C08B3210F0A8
:10297000946502C0880F982B9093FC02662351F057
:102980006091FC027091FD028091FE029091FF0225
:102990000E94720F6091FC02669570E04BE050E07F
:1029A00084E191E00E94B233892B19F01092240245
:1029B00002C00E94971481E080931F024091FF02A1
:1029C0006091FE028091FD020C9498110895682F89
:1029D0009091FC02969581E0890F8B3208F081E09E
:1029E0000C94AD1481E00C94E714682F9091FC02D4
:1029F00096958FEF890F09F48AE20C94AD1481E06B
:102A00000C94F51461E00C94AD14ECEFF2E08081CD
:102A10008160808386950C9402158091FC0280FD74
:102A20000C946D140C94051560E00C94AD14809119
:102A3000220281112EC00E949728811104C00E9499
:102A40003E290E948E0F0E946E0F6093FC027093CD
:102A5000FD028093FE029093FF026E7F61F40E945C
:102A60008E0F0E946E0F6093FC027093FD028093A4
:102A7000FE029093FF020E945B0F1092240280914D
:102A8000FC0280FF03C086950E94141581E08093AC
:102A900022020895ECEFF2E08081816080838695C8
:102AA0000C9414150F931F93CF93DF9380912402FE
:102AB000882309F495C080912302E091FC02E695F9
:102AC000E81BE0931E02823049F4F0E0ED51FC4F28
:102AD000E491CE2FD0E00DE410E159C0863049F4E6
:102AE000F0E0E052FC4FE491CE2FD0E001E610E19F
:102AF0004EC0893051F4E695F0E0EE5DFC4FE49174
:102B0000CE2FD0E00BE911E142C08F3051F4E695B1
:102B1000F0E0E352FC4FE491CE2FD0E006ED11E15E
:102B200036C0853149F4F0E0E652FC4FE491CE2FF7
:102B3000D0E002E512E12BC08831D9F0833239F4BC
:102B4000E8EDF3E0C591D49101E710E120C08432B3
:102B5000A9F08532C1F48E2F63E00E94AB32E92FD9
:102B6000F0E0EB52FC4FE491CE2FD0E006E913E108
:102B70000EC0C8E2D0E004EC12E109C0C4EFD1E01D
:102B800007E513E104C0C0EDD7E009E41FE0809140
:102B90001F02882361F010921F020E948B2A9093DB
:102BA0001D0280931C0210922102109220020E94AA
:102BB0008B2AE0911C02F0911D028E1B9F0B8F3F10
:102BC0009F4770F4EC0FFD1FF0931D02E0931C0271
:102BD0008CE192E0F801DF91CF911F910F91099460
:102BE000DF91CF911F910F910895882311F0FA0181
:102BF00001C0FB010994CF93DF93C82FD62F0E9409
:102C00009D0F8C1740F00E949D0F8D1720F4DF91CF
:102C1000CF910C94F2148C2FDF91CF910C9402156C
:102C20000F931F93CF93FB01C281CC2309F463C0A0
:102C30008C010E94DE278272F801E25CFC45E431DF
:102C4000F10508F059C0EB56FF4F0C940F330E946A
:102C50000D1506C04FEF54E162EF74E10E94F515C7
:102C6000C0E04AC042EF54E16FEF74E1F7CF49E5AD
:102C700051E16CE471E1F2CF4CE451E169E571E1BD
:102C8000EDCF47E751E168E671E1E8CF48E651E171
:102C900067E771E1E3CF45E951E166E871E1DECF35
:102CA00046E851E165E971E1D9CF40ED5FE069EBBC
:102CB0007FE0D4CF49EB5FE060ED7FE0CFCF81E0F4
:102CC00017C065E082E010C068E086E00DC06EE0ED
:102CD00089E00AC064E18FE007C067E185E104C0D4
:102CE00088E106C062E289E10E94FB15B9CF83E268
:102CF0000E940215B5CFC1E08C2FCF911F910F918B
:102D00000895539A2BB1277F3BB138604FB7F894A1
:102D1000FC01CB01880F991F680F791F6E0F7F1F71
:102D2000E617F70789F0819198E03BB9000000C0F1
:102D300087FF2BB9880F000000C000C000C02BB96E
:102D400000C09A9591F7ECCF4FBF8FE594E00197C3
:102D5000F1F700C00000089582E290E00E94C633BF
:102D6000893981F483E290E00E94C633853551F4BD
:102D700084E290E00E94C63391E08A3209F090E04C
:102D8000892F01C080E081700895CF93C82F8111F1
:102D900002C06FEF01C069E982E290E00E94DA337D
:102DA000C11102C06FEF01C065E583E290E00E94AF
:102DB000DA33C11102C06FEF01C06AE284E290E031
:102DC000CF910C94DA3380E00E94C5160C949128C0
:102DD000089585E290E00E94C633682F70E080E09D
:102DE00090E0089585E290E00C94DA330E94E816B2
:102DF0000E94AC1681110CC060E070E0CB010E9413
:102E0000F2160E94B1190E94B41A81E00C94C51602
:102E10000895CF93FB01C281CC23E9F09C0122519C
:102E20003F452031310520F482510E94C41A0CC064
:102E30008031FFE59F0751F481E00E94682643E05E
:102E400062E081E00E948205C0E018C081319F45A8
:102E5000A9F482E0F2CF8031EFE59E0711F481E022
:102E600004C081319F4549F482E00E94892643E0F5
:102E700062E081E00E94820501C0C1E08C2FCF9109
:102E800008952FEFFC0120830895CF93DF93EC0189
:102E90008881813889F028F48038A1F40E94EE0FEF
:102EA00010C0823861F0833869F40E94E80F89838A
:102EB0000E94EB0F8A8306C00E949D0F02C00E94F1
:102EC000D30F8983DF91CF910895CF93DF93EC01E6
:102ED00088818138B1F058F4803851F5D9810E9449
:102EE000EB0FC82F0E94E80F4D2F6C2F1DC08238AA
:102EF000B1F08338E9F40E94EE0F482F6A8189818E
:102F000013C089810E9414158981811104C0DF9149
:102F1000CF910C948514DF91CF910C944A1589813F
:102F2000DF91CF910C94E50FDF91CF910C94981124
:102F3000DF91CF9108951F93CF93DF93EC01162F6C
:102F400020912702309128029881232B51F09E3F37
:102F500009F0E5C08981833020F08550833008F086
:102F6000DEC09E012F5F3F4F993009F480C0E8F426
:102F7000943009F462C050F49230E1F108F04CC092
:102F8000913009F0CAC0198289E077C0963009F4FF
:102F900067C008F45AC0973009F465C0983009F04A
:102FA000BCC0C9010E944517BAC0903109F48EC057
:102FB00088F49D3009F45EC030F49C3009F0ADC057
:102FC0000E94671A88C09E3009F459C09F3009F4E6
:102FD00067C0A3C0923109F480C008F47AC093316D
:102FE00009F48BC09E3F09F098C0612FCE010E946A
:102FF000961895C08981823041F0833009F48FC0E2
:103000008130B1F40E94972A02C00E94E9169A8387
:103010008B837C836D8383C08981823049F46A818C
:103020007B818C819D810E9415330E94F21677C0AE
:10303000612FCE010E94411772C04B816A81898144
:103040000E9467199C838D836AC02C813D81322741
:10305000232732274B816A8189810E9488195FC0AA
:103060000E94B1195CC0C9010E94651758C00E9436
:10307000840F55C00E94691A99838A8350C0898140
:103080009A819827892798276B8170E06D317105A7
:1030900008F045C0AE014C5F5F4F0E946C1A3FC004
:1030A00080911F0190912001892BC9F189819A811A
:1030B0009827892798276B8170E06D31710578F525
:1030C000AE014C5F5F4F0E94911A29C00E94B41A52
:1030D00026C00E945419898322C089819A81982729
:1030E000892798276B8170E06D317105C0F4AE01BE
:1030F0004C5F5F4F0E94021A12C089819A81982703
:10310000892798276B8170E06D31710540F4AE011D
:103110004C5F5F4F0E94261A02C08FEF8883612F99
:10312000CE01DF91CF911F910C94C32B0F931F936E
:10313000CF93DF93CDB7DEB728970FB6F894DEBFF5
:103140000FBECDBF603209F0A4C0FC012181223046
:10315000F1F160F4222311F1213009F09AC03CE52D
:10316000FC01308321831282138293C0263009F43C
:103170006EC0273009F483C0253009F08AC08C0165
:1031800040E250E06FEF70E00E94BF3380911F017A
:10319000F80180838091270281837BC028E0EEE2E2
:1031A000F1E0DE01119601900D922A95E1F721E000
:1031B000FC01208311821282138228E0FE013196E5
:1031C000DC01149601900D922A95E1F762C0FC0192
:1031D000038110E0102F00272281020F111D012E04
:1031E000000C220B330B45E0000F111F221F331F71
:1031F0004A95D1F7B901A801405E5F4F6F4F7F4FED
:10320000401751076207730708F443C00C35F1E01B
:103210001F0721053105E8F54D35E1E05E07610541
:10322000710520F04CE551E060E070E0401B510B6F
:10323000B80164517A4F28960FB6F894DEBF0FBEDE
:10324000CDBFDF91CF911F910F910C94A93381E0F5
:1032500090E0909328028093270282E390E090937D
:1032600026028093250228960FB6F894DEBF0FBE83
:10327000CDBFDF91CF911F910F910C948B2A20919C
:103280001F01FC0120832091270221832091250228
:10329000228328960FB6F894DEBF0FBECDBFDF9114
:1032A000CF911F910F91089584E0089550E0440F4D
:1032B000551F28E1629F400D511D11249A0160E6BF
:1032C000869F200D311D1124C901869608950F9304
:1032D0001F93CF93DF938430A0F4643090F44C308C
:1032E00080F40E9456198C010E94C63390E0D82FBA
:1032F000CC27C80101960E94C6339E01282BC90124
:1033000002C080E090E0DF91CF911F910F9108956E
:103310000F931F93CF93DF938430F0F46430E0F485
:103320004C30D0F421159CE5390731F4E0911F01B0
:10333000F0912001EF2B81F0E9010E9456198C01D8
:103340006D2F0E94DA336C2FC8010196DF91CF9167
:103350001F910F910C94DA33DF91CF911F910F9150
:1033600008958F929F92AF92BF92CF92DF92EF9289
:10337000FF920F931F93CF93DF93C0901F01D090C4
:10338000200181E090E09093200180931F01812C27
:10339000E12CF12C912C00E010E0C0E0D0E05701CE
:1033A000A00EB11EFE01EE0FFF1FEA0DFB1DEE5534
:1033B000FE4F259134914C2F692D882D0E9488193C
:1033C0002196CC30D10571F7085E1F4F939484E0AD
:1033D0009812E3CF80E6E80EF11C839484E0881213
:1033E000D9CFD0922001C0921F01DF91CF911F91C0
:1033F0000F91FF90EF90DF90CF90BF90AF909F9094
:103400008F900895EF92FF920F931F93CF93DF93C6
:10341000EA017A01E60EF71E8C01C8018696CE15E8
:10342000DF0569F0003821E0120720F40E94C6335E
:10343000888301C0188221960F5F1F4FEECFDF9166
:10344000CF911F910F91FF90EF900895EF92FF920F
:103450000F931F93CF93DF938A01803821E0920767
:10346000E0F420E831E0281B390B26173707A8F0D5
:103470007A01E60EF71EEC01CE0186960E151F05A9
:1034800061F0C038E1E0DE0720F4F80160810E94BD
:10349000DA330F5F1F4F2196EFCFDF91CF911F914E
:1034A0000F91FF90EF900895462F209127023091C1
:1034B0002802232B49F4843038F4743028F46C301B
:1034C00018F4672F0C94671980E090E0089580E16C
:1034D00008958AE592E00895EF92FF920F931F936B
:1034E000CF93DF93EA017A01E60EF71E8C01C80143
:1034F0008A559E4FCE15DF0569F00A3522E0120786
:1035000020F40E94C633888301C0188221960F5F81
:103510001F4FEDCFDF91CF911F910F91FF90EF9053
:103520000895EF92FF920F931F93CF93DF93EA01D9
:103530007A01E60EF71E8C01C8018A559E4FCE1502
:10354000DF0559F00A3522E0120718F468810E945D
:10355000DA3321960F5F1F4FEFCFDF91CF911F918D
:103560000F91FF90EF900895CF93DF93C6EAD1E0DB
:1035700060E0CE010E94DA332196C11584E0D807BD
:10358000B9F7DF91CF910895DF92EF92FF920F93F9
:103590001F93CF93DF9300D000D0CDB7DEB7F82EC6
:1035A0008FE08F15E8F18FEF93E00E94C633811111
:1035B00037C006EA11E0FF2069F0011584E0180722
:1035C00079F1C8010E94C633811101C0FA940F5FDE
:1035D0001F4FF1CF19821A821B821C82DD24D394E3
:1035E00078018FEFE81AF80AC8010E94C633898370
:1035F0001A828823A9F09FEF980F933058F48A839A
:10360000D9820E5F1F4FC7010E94C6338B83882368
:1036100039F07801CE0101960E94C8068701E0CFFB
:103620000F900F900F900F90DF91CF911F910F91FE
:10363000FF90EF90DF9008950F931F93CF93DF9348
:10364000C42FD22FFC0182818823C9F040932B0222
:103650000E948B2A90932A028093290280E28C0F89
:10366000883008F057C0C77081E001C0880FCA9544
:10367000EAF7DF91CF911F910F910C94881F8091F1
:103680002B02481330C08091290290912A020E9497
:10369000A32A883C910538F510E21D0FCD17B9F02B
:1036A00080E28C0F883040F4C77081E001C0880F41
:1036B000CA95EAF70E948F1F183028F581E09D2FE8
:1036C000977001C0880F9A95EAF70E94881F802F93
:1036D0000E947F1F1830F0F4D77081E001C0880F7E
:1036E000DA95EAF70AC080E28C0F883098F4C77048
:1036F00081E001C0880FCA95EAF7DF91CF911F9151
:103700000F910C948F1F802FDF91CF911F910F91FC
:103710000C947F1FDF91CF911F910F9108950F930C
:103720009C01CB01233F4CE5340731F188F4283D5F
:10373000FCE53F07D9F0293D4CE5340779F1273DF9
:103740003C45A9F506E221EE41EE67ED7CE52BC094
:10375000253FFCE53F07E1F0A8F0263F3C4539F561
:1037600007E225EE46EE66EF7CE51DC007E225EE9A
:1037700045EE68ED7CE517C006E221EE40EE63EF12
:103780007CE511C007E225EE44EE64EF7CE50BC05A
:1037900006E221EE42EE65EF7CE505C008E221E09D
:1037A00045EE69ED7CE50E941C1B80E008C0FC0131
:1037B0008281882319F010922B0201C081E00F91C1
:1037C0000895CF93DF93EC01FB018281882309F4F4
:1037D0001FC1C230FCE5DF0708F41BC1C6319CE500
:1037E000D90738F09E012A5F3C452930310508F0A1
:1037F00010C10E94AA289093150380931403C0312E
:10380000ECE5DE0709F4C3C008F041C0C8308CE520
:10381000D80709F49AC0F0F4C430ECE5DE0709F4E7
:1038200087C068F4C2308CE5D80709F477C0C3308C
:10383000DC4509F0E3C080911403826076C0C63095
:10384000ECE5DE0709F46EC008F07BC0809114033C
:1038500088606BC0CC308CE5D80709F485C068F46B
:10386000CA30ECE5DE0709F474C008F079C00E94A4
:10387000122280911403806858C0CE308CE5D8079E
:1038800009F476C008F07FC0809114038BC0CB3F51
:10389000ECE5DE0709F44FC018F5C3318CE5D80715
:1038A00009F47DC078F4C131ECE5DE0709F473C09A
:1038B000C231DC4509F0A2C00E941222809114039B
:1038C0008F7733C0C5318CE5D80709F472C008F48E
:1038D00086C0CA3FDC4509F091C0809115033EC007
:1038E000CF3FFCE5DF0709F45FC058F4CD3F9CE50E
:1038F000D90709F444C008F43FC0809115038260E1
:103900002DC0C130FDE5DF0709F475C008F45DC0C6
:10391000C230DD4509F072C080E06EC080911403B2
:10392000816003C08091140380618093140366C09A
:103930008091140311C08091150382608093150358
:103940005DC0809114038062F0CF80911403806485
:10395000ECCF8091140388608460E7CF8160EECF64
:10396000809114038E7FE1CF809114038D7FDDCF92
:1039700080911403877FD9CF8091150318C080915F
:1039800015038D7FDBCF809114038F7ECECF809186
:1039900014038F7DCACF809114038F7BC6CF809193
:1039A0001403877F8B7FC1CF809115038D7F8E7F1E
:1039B000C5CF8091140382FB222720F991E0922742
:1039C00090FB82F990FB83F9B0CF80911503982F7B
:1039D000909591708E7F892B90FB81F9AFCF0E94DB
:1039E00012228091140387FB222720F991E092276D
:1039F00090FB87F99ACF81E00E94402980911403BF
:103A0000909115030E94BB280E94122280E001C001
:103A100081E0DF91CF910895CF93DF9386319C456C
:103A200041F5EB010E94DE27982F8A812091210128
:103A300030912201882379F09A7A81E009F480E0BC
:103A400080932C02911102C069E201C065E3C901B3
:103A50000E94DB290AC080912C02811102C069E218
:103A600001C065E3C9010E94E6290E942C2880E07C
:103A700001C081E0DF91CF9108959093320280934D
:103A800031020895E0913102F0913202309721F035
:103A90000190F081E02D099480E00895E0913102D9
:103AA000F0913202309799F020912D01222359F0A4
:103AB0002091140327FF07C0DC012C9111962C9351
:103AC000119725E02C930280F381E02D099408954D
:103AD000E0913102F0913202309739F022E0DC01BE
:103AE0002C930480F581E02D0994089520912F02F4
:103AF000309130022817390771F09093300280938B
:103B00002F02E0913102F0913202309721F00680CD
:103B1000F781E02D0994089520912D0230912E0215
:103B20002817390771F090932E0280932D02E091AF
:103B30003102F0913202309721F00084F185E02DBE
:103B4000099408950E94972A60934002709341025D
:103B5000809342029093430260933C0270933D0233
:103B600080933E0290933F02089585B7806885BF99
:103B700085B7806885BF089581E008950C94BC1DC9
:103B800008950C94C01D0C94C01D0C94C31D0C947E
:103B9000C01D0C94C71D0C94C01D0E94B51D8FE85C
:103BA00098E20E94E92A0E94CB1D0C94C91D0E9434
:103BB000822A0E9408090E94F6160E94042B0E9485
:103BC00017150C94C51D6F927F928F929F92AF92A2
:103BD000BF92CF92DF92EF92FF920F931F93CF93FA
:103BE000DF93CDB7DEB72A970FB6F894DEBF0FBECE
:103BF000CDBF0E94C11D0E94C01D0E944B098111B2
:103C00000E94A21D34E3832E32E0932E00E010E0E8
:103C1000C02E802F0E94D6085C01F4016190719043
:103C20004F016826792661147104B1F40F5F1F4FAC
:103C30000430110569F78FEF89838A831B820E9404
:103C40008B2A8160782F9D838C8349815A816B8177
:103C50008D810E949F1E3AC08091C80281FD0E9402
:103C6000DF08D12CEE24E394F12CC3018E219F2197
:103C7000892B29F10E94BE1D8823A9F0DE82CF8204
:103C8000AE20BF2081E0AB2809F480E088870E9445
:103C90008B2A8160782F9A8789874E815F8168851A
:103CA0008A850E949F1E000F111FF801EC5CFD4FDA
:103CB00080819181E826F926F182E08207C0D394C1
:103CC000EE0CFF1CFCE0DF12D0CFB0CF0E945215EB
:103CD0000E94940D0E94421D909133028917D1F0E9
:103CE0000E94421D809333022A960FB6F894DEBFDD
:103CF0000FBECDBFDF91CF911F910F91FF90EF903D
:103D0000DF90CF90BF90AF909F908F907F906F90FB
:103D10000C94D2062A960FB6F894DEBF0FBECDBF24
:103D2000DF91CF911F910F91FF90EF90DF90CF9097
:103D3000BF90AF909F908F907F906F900895DF928B
:103D4000EF92FF920F931F93CF93DF93CDB7DEB720
:103D50002B970FB6F894DEBF0FBECDBFF42E052F04
:103D6000162FE72ED82E61110E94FE27FE013196F4
:103D700086E0DF011D928A95E9F77E2D4F2D502FA9
:103D8000612F8D2D9E810E94CB242B960FB6F89427
:103D9000DEBF0FBECDBFDF91CF911F910F91FF907E
:103DA000EF90DF900895FC01808191810E949F2710
:103DB0000895CF93882309F455C0C82F8CEF8C0F3A
:103DC000813AF8F48C2F0E94760B81114BC06C2F36
:103DD00080912101909122010E945B29882349F062
:103DE0006C2F80912101909122010E94E6290E946E
:103DF0002C286C2F80912101909122010E94DB29B7
:103E00000CC080E28C0F883058F4C77081E001C08C
:103E1000880FCA95EAF70E94E127CF910C942C28CD
:103E2000EBE5EC0FE33040F4F0E0E652FE4F80812A
:103E300090E0CF910C94761DE8E5EC0FE73150F45B
:103E4000F0E0EE0FFF1FE455FE4F80819181CF918E
:103E50000C948C1DC03F30F08C2F0E94890CCF91A8
:103E60000C94760DCF910895882389F19CEF980FDB
:103E7000913A40F4682F80912101909122010E9493
:103E8000E6290DC090E2980F983058F4877091E0C1
:103E900001C0990F8A95EAF7892F0E94E7270C94B1
:103EA0002C289BE5980F933020F480E090E00C9450
:103EB000761D98E5980F973120F480E090E00C94FF
:103EC0008C1D803F20F00E94F10C0C94760D08951B
:103ED0001F93CF93DF93182FEB010E94D91E2097D9
:103EE00041F08FE99FE00197F1F700C000002197B2
:103EF000F6CF812FDF91CF911F910C94341F89331E
:103F000019F060E070E002C060E570E00C94681F9A
:103F1000882321F00E94E1270C942C2808958823FF
:103F200021F00E94E7270C942C280895CF92DF926D
:103F3000EF92FF920F931F93CF93DF937C01062F95
:103F4000C72FFC01D281158112951F700E94D727BF
:103F5000882399F0DD2389F08C2F807F803421F035
:103F600080E2800F883048F082E00E9476280E942C
:103F7000D72791E0D82ED92601C0D12CCC2EC294BF
:103F80008FE0C8228C2D90E0FC01E755FF4F0C9488
:103F90000F338C2F807FCF70882311F0C295C07FA4
:103FA000DD2399F0CC2309F48BC180E2800F8830A7
:103FB00010F0011104C08C2F0E94E12703C08C2F48
:103FC0000E94F1270E942C287BC1802F0E94341F61
:103FD000CC2309F499C180E2800F883010F00111E0
:103FE00004C08C2F0E94E72703C08C2F0E94F72764
:103FF0000E942C2889C18C2F807FCF70803211F0D5
:10400000C295C07F002319F00130C9F022C0DD2322
:1040100071F0112341F0113031F40E9411288C2BE2
:104020000E94192871C10E9411288C2BF6C01123FF
:1040300019F0113009F468C10E94222823C0DD2341
:1040400021F0163008F060C10EC0153008F05CC1D8
:1040500019C0DD2351F0112331F0F701858180FF74
:104060002FC18F7085838C2FD8C0112359F009334D
:1040700009F037C1FFEF27EE83E0F1502040804088
:10408000E1F72DC18C2F0E948F1F3EC18C2F86958A
:104090008695837019F0813061F036C1DD2321F0FF
:1040A000802F9C2F937002C080E090E00E94761DCC
:1040B0002BC1DD2321F0802F9C2F937002C080E064
:1040C00090E00E948C1D20C1802FDD2329F00E94EA
:1040D000890C0E94760D02C00E94F10C0E94760DA0
:1040E00013C18C2F837009F045C0D11111C1402F2D
:1040F000429546954770440F440F602F6F70862F8E
:1041000090E0A0E0B0E0042E04C0880F991FAA1F21
:10411000BB1F0A94D2F704FF10C00FE010E020E0AC
:1041200030E004C0000F111F221F331F4A95D2F741
:10413000009510952095309503C000E010E098019F
:10414000C695C695C370BC01CD01602B712B822B27
:10415000932BC23049F058F4C13019F00E941C264C
:10416000D3C00E940A26D0C00E942E26CDC00E9435
:104170000826CAC0DD2319F08C2F817001C08695F6
:10418000882309F4C5C0402F429546954770440FD7
:10419000440F602F6F70862F90E0A0E0B0E0042EF7
:1041A00004C0880F991FAA1FBB1F0A94D2F704FFEF
:1041B00010C00FE010E020E030E004C0000F111F3D
:1041C000221F331F4A95D2F7009510952095309500
:1041D00003C000E010E09801C695C695C370BC010D
:1041E000CD01602B712B822B932BC23049F058F4F8
:1041F000C13019F00E94E12687C00E94CF2684C0FA
:104200000E94F32681C00E9442267EC0CF70DD232B
:1042100039F08C2F0E946826802F0E94881F74C05E
:10422000802F0E948F1F8C2F26C0023F01F128F49F
:10423000003F41F0013FA1F03FC0033FF9F0043FD0
:1042400039F13AC0DD2341F0153008F05DC08C2F04
:104250008F710E94AE2658C0163008F055C0F7CFB7
:10426000DD2339F08C2F8F710E9468264DC0DD232D
:10427000C9F38C2F8F710E94892646C0DD2329F057
:104280008C2F8F710E9453263FC00E944E263CC047
:10429000DD2349F0CF718C2F0E94682663E08C2FBC
:1042A0000E94612831C081E00E947628123060F1BE
:1042B00082E00E94762828C0DD2331F0112391F29C
:1042C000802F0E94D91E20C0112399F2093349F48E
:1042D0009FEFE7EEF3E09150E040F040E1F700C0DF
:1042E0000000802F0E94341F0FC04C2F4F70602F92
:1042F000C7010E94DB060E94792506C04C2F4F7033
:10430000602FC7010E94DE0688EF8C0D843020F4F8
:104310000E94421D0E94D206DD20C9F00E94D327D0
:1043200080FD15C0F70112820E94CD270E946826E9
:10433000C7010E94C8210E94CD27DF91CF911F9114
:104340000F91FF90EF90DF90CF900C948926DF9132
:10435000CF911F910F91FF90EF90DF90CF90089534
:104360000F931F93CF93DF93EC01688179818A814A
:104370000E94AA278C010E9405270E94F625B801F9
:10438000CE010E94961FDF91CF911F910F9108954A
:10439000CF93DF93EC01988189812B813C81232B82
:1043A00031F08F3F31F481E09F3F19F403C081E089
:1043B00001C080E080FD19C0CE010E94B0058111CE
:1043C0000CC00E94D727882381F08A81882369F056
:1043D00082E0DF91CF910C947628CE010E94B0212B
:1043E000CE01DF91CF910C942305DF91CF910895F9
:1043F00080E090E00E94761D80E090E00E948C1D9D
:104400000E94FE270E940E280E942C280E94A70EC0
:104410000C94760D80912101909122010E94F12946
:104420000C94F8210E94EE270C940A22E92FE295C1
:10443000EF704E2F50E0FA013297EE30F105B0F4F4
:10444000E754FF4F0C940F33803F91F018F4883EEF
:1044500068F40EC0843F51F40BC0883E48F0813FA1
:1044600029F406C093FB882780F9089580E0089519
:1044700081E008950E949F270E9416220895CF93FD
:10448000DF9300D000D01F92CDB7DEB70F900F9012
:104490000F900F900F90DF91CF910895CF93DF93FE
:1044A00000D000D000D0CDB7DEB726960FB6F89476
:1044B000DEBF0FBECDBFDF91CF9108951F93CF9385
:1044C000DF93C091450216E080914602C81799F02B
:1044D000D0E01C9FF0011D9FF00D1124E95BFD4F02
:1044E0004081518162817381848195810E944E2235
:1044F0002196C770E9CFDF91CF911F910895409128
:104500007702509178026091790270917A028091DD
:104510007B0290917C020C944E220F931F93CF93B9
:10452000DF9380917C0282958F7009F05DC080914D
:104530007902882309F458C08091450210914602FF
:104540006091770270917802C0917A02D0917B02DB
:1045500091E06F3F09F090E0292F06E0811709F400
:1045600043C0209721F07F3F21F030E003C031E0CD
:1045700001C0322F90E030FD34C0089FF001099F48
:10458000F00D1124DF01A95BBD4F11963C911197ED
:10459000371327C03C91361324C012963C911297D2
:1045A00031111FC013964D915C9114974C1B5D0BFC
:1045B000483C5105B0F480917C028F7080618093FB
:1045C0007C02E45BFD4F80818F708061808387E790
:1045D00092E00E94C821DF91CF911F910F910C941E
:1045E0005E2201968770BACFDF91CF911F910F9114
:1045F00008959F92AF92BF92CF92DF92EF92FF9277
:104600000F931F93CF93DF93CDB7DEB761970FB6AC
:10461000F894DEBF0FBECDBF8C0185E0F801DE014E
:104620001D9601900D928A95E1F7F8014081518124
:10463000E280909177026091780220917A02309125
:104640007B022115310531F06F3F31F481E09F3F4E
:1046500019F403C081E001C080E0F82FF1709F2EB3
:1046600080FD46C1F801A380B48087E7C82E82E0B0
:10467000D82EF0907902F501E21BF30BFF2009F42C
:10468000DFC080917C02E83CF10508F09BC0282F38
:10469000207F09F052C0561313C0491311C0FE2CDD
:1046A000E1100EC08F70806180937C020E947F2297
:1046B000C6010E94C82180917C02F801858358C1FF
:1046C000AB2831F05F3F31F481E04F3F19F403C074
:1046D00081E001C080E080FD03C081E08E2502C042
:1046E00080E090E0F82FF170FF2E80FF1CC08091D9
:1046F00045022091460236E0821709F417C190E086
:10470000389FF001399FF00D1124E95BFD4F618165
:10471000561306C06081461303C06281E61203C0CF
:1047200001968770E9CFFE2CEE2009F421C180911B
:104730007C02816080937C025AC0561306C04913E4
:1047400004C0E11002C0F8019FC04D875E878D85CF
:104750009E850E943A22882379F1EE2069F120910A
:104760007C02822F82958F7090E0029774F0809186
:1047700077029091780298878F831986BB86AA86E4
:104780002C87CE0107960E94C82186E0F801A7E792
:10479000B2E001900D928A95E1F70E948D220E946D
:1047A0007F220DC0561729F14D875E878D859E8526
:1047B0000E943A2281112CC0C8010E94C821FF2406
:1047C000F394D6C0282F207F69F77A2DB98AA88A5A
:1047D0006E2D89890E943F2287E792E00E94C821BE
:1047E00086E0F60111928A95E9F70E947F22F12C6A
:1047F000BFC04913D9CFE110D7CFF8018583C801D5
:104800000E94C82186E0F60111928A95E9F7B0C0AE
:10481000EE2091F220917C02822F82958F7090E0A1
:1048200002970CF4B2CF80917702909178029A832C
:1048300089831B82BD82AC822E83CE010196A3CFD9
:10484000E83CF10508F047C0FE2CEE2009F4B4CF97
:10485000561330C049132EC020917C0220FD21C088
:10486000822F82958F70482F50E041155105C9F075
:10487000F80125834F30510541F08F5F982F9295B5
:10488000907F822F8F70892B8583C8010E94C82159
:1048900086E0F801A7E7B2E001900D928A95E1F772
:1048A00042C086E0F801A7E7B2E001900D928A9538
:1048B000E1F75EC04D875E878D859E850E943A2216
:1048C000811163CF80917C02816080937C02C8015A
:1048D0000E94C8214DC07A2DB98AA88A6E2D898977
:1048E0000E943F2286E0F60111928A95E9F71BC0EB
:1048F000EE2009F461CF4D875E878D859E850E94ED
:104900003A22F82E882309F457CF86E0F801A7E76A
:10491000B2E001900D928A95E1F787E792E00E945C
:10492000D31E0E948D220E947F2222C04D875E8767
:104930008D859E850E949F27292F22952F702230DA
:1049400028F49F7039F0811105C00BC0243028F481
:104950009F7049F4805E883020F0C8010E94C82111
:104960009F2CF92C05C0F8019581907F99F7F9CF1C
:104970008F2D61960FB6F894DEBF0FBECDBFDF91CD
:10498000CF911F910F91FF90EF90DF90CF90BF904C
:10499000AF909F9008951F93CF93DF93CDB7DEB76D
:1049A0002C970FB6F894DEBF0FBECDBF4F8358874C
:1049B00069877A878B879C87CE0107960E94F922A8
:1049C0008823D1F09F8188852A853B85232B31F070
:1049D0008F3F31F481E09F3F19F403C081E001C0B3
:1049E00080E080FD47C04F81588569857A858B8539
:1049F0009C850E944E223EC086E0FE013796DE0175
:104A0000119601900D928A95E1F7FF81E8856A85FC
:104A10007B856115710531F0EF3F31F481E0FF3F97
:104A200019F403C081E001C080E080FD23C0209123
:104A3000460230E0C90101968770992740914502EE
:104A400050E084179507F1F1F983EA837D836C8345
:104A500096E0929FD001939FB00D1124A95BBD4FAA
:104A6000FE01319601900D929A95E1F780934602EE
:104A70000E945E2216E080914502909146028917BD
:104A800071F1189FC0011124895B9D4F0E94F9228A
:104A9000882329F1E09145021E9FF0011124E95B72
:104AA000FD4F4081518162817381848195810E9493
:104AB0004E228091450290E001968770992780935D
:104AC0004502D9CF0E94122210924602109245024E
:104AD000E7E7F2E086E0DF011D928A95E9F72C9680
:104AE0000FB6F894DEBF0FBECDBFDF91CF911F91FF
:104AF0000895EF92FF920F931F93CF93DF938C0152
:104B0000892B09F46CC0F12CEE24E394E801219682
:104B1000F8018491843740F4843008F051C081302A
:104B200081F0823019F15BC0853709F444C0A8F1E7
:104B30009CE7980F903708F052C08F770E94341F7F
:104B400041C00E5F1F4FFE01849190E2980F983094
:104B500050F48770FE2D01C0FF0F8A95EAF78F2F62
:104B60000E94012814C00E94D91E2DC00E5F1F4F45
:104B7000FE01849190E2980F983060F48770FE2DCA
:104B800001C0FF0F8A95EAF78F2F0E9407280E9425
:104B90002C2819C00E94341F16C00E5F1F4FFE0143
:104BA000C491CC2381F08FE99FE00197F1F700C019
:104BB0000000C150F6CF0E5F1F4FFE01F49003C0FE
:104BC0000E94D91E8E018F2D882309F49FCFEFE913
:104BD000FFE03197F1F700C000008150F5CFDF9181
:104BE000CF911F910F91FF90EF9008950895089530
:104BF0000C94F7250C94F8250E94FA2560939F02E7
:104C00007093A0028093A1029093A2020C94F821C9
:104C10000C94FC250F931F9300919F021091A0020A
:104C20002091A1023091A202602B712B822B932B39
:104C30001F910F910C94FC250F931F9300919F02DD
:104C40001091A0022091A1023091A2026023712351
:104C5000822393231F910F910C94FC250F931F9394
:104C600000919F021091A0022091A1023091A20216
:104C700060277127822793271F910F910C94FC25A1
:104C80000C94F7250E94402660939B0270939C022F
:104C900080939D0290939E020C94F82160E070E056
:104CA000CB010C9442260F931F9341E050E060E04B
:104CB00070E08A019B0104C0000F111F221F331FE7
:104CC0008A95D2F7C901B8011F910F910C94422621
:104CD0000F931F9341E050E060E070E004C0440F88
:104CE000551F661F771F8A95D2F780919B0290917E
:104CF0009C02A0919D02B0919E028A019B01082B0B
:104D0000192B2A2B3B2BC901B8011F910F910C9431
:104D100042260F931F9341E050E060E070E004C032
:104D2000440F551F661F771F8A95D2F740955095FF
:104D30006095709580919B0290919C02A0919D023C
:104D4000B0919E028A019B01082319232A233B2349
:104D5000C901B8011F910F910C9442260F931F9324
:104D600041E050E060E070E004C0440F551F661F52
:104D7000771F8A95D2F780919B0290919C02A09117
:104D80009D02B0919E028A019B01082719272A27BC
:104D90003B27C901B8011F910F910C9442260F9334
:104DA0001F9300919B0210919C0220919D023091D3
:104DB0009E02602B712B822B932B1F910F910C94D1
:104DC00042260F931F9300919B0210919C02209109
:104DD0009D0230919E0260237123822393231F91B1
:104DE0000F910C9442260F931F9300919B021091F8
:104DF0009C0220919D0230919E026027712782279C
:104E000093271F910F910C94422608952CE0929FB6
:104E1000800D1124E82FE695E695E695877051E020
:104E200001C0550F8A95EAF785E0E89FF00111244B
:104E3000E358FD4F20E030E070E04081CB01022ECE
:104E400002C0969587950A94E2F781708195842730
:104E50008523842781932F5F3F4F2530310569F7E4
:104E600008952CE0929F800D1124682F6695669519
:104E70006695982F977085E0689FB001112440E0F7
:104E800050E080E0FB01E40FF51FE358FD4F208167
:104E900030E0092E02C0369527950A94E2F721707A
:104EA0003327042E01C0220F0A94EAF7822B4F5FAA
:104EB0005F4F4530510531F70895BF92CF92DF9291
:104EC000EF92FF920F931F93CF93DF938C01C090CB
:104ED0009B02D0909C02E0909D02F0909E028091F7
:104EE0009F029091A002A091A102B091A202C82AB3
:104EF000D92AEA2AFB2ACFE1D0E0D701C6010C2E3D
:104F000004C0B695A795979587950A94D2F780FD2A
:104F100004C0219790F7B12C07C0BC2EB8018C2F8C
:104F20000E94E7060197A9F38B2DDF91CF911F9186
:104F30000F91FF90EF90DF90CF90BF900895CF93A7
:104F4000DF93EC010E945D27BE010E94E706DF911E
:104F5000CF9108951F93CF93DF93EB01909144027B
:104F6000992321F0CB010E949F2713C0882349F089
:104F7000CB010E945D27182F682FCE010E940627C3
:104F800004C0CB010E943127182FBE01812F0E943F
:104F9000E706DF91CF911F9108958091A302859537
:104FA0008595859508958091A302877008959091C5
:104FB000A302977081E009F480E008958091C70210
:104FC00008959091C702892B8093C7020895809518
:104FD0009091C70289238093C70208951092C70257
:104FE00008959091C602892B8093C60208958095FA
:104FF0009091C60289238093C60208951092C6023A
:1050000008959091C502892B8093C50208958095DB
:105010009091C50289238093C50208951092C5021C
:1050200008958091A402089508950C9414280C9476
:1050300015289091A402981721F08093A4020C9453
:10504000172808958091A402882329F01092A402C1
:1050500080E00C9417280895E0912101F09122013D
:105060008091C7028083E0912101F091220190811B
:105070008091C602892B8083E0912101F091220169
:1050800090818091C502892B80838091A40288231E
:1050900081F0E0912101F09122019081892B8083A0
:1050A00080912101909122010E94452981110E9445
:1050B000222880912101909122010C944E1D0C9484
:1050C000142898E0899F90011124262B2093A30295
:1050D0000E9468268091A3028595859585950C94FC
:1050E0005F281092A30280E00C945F282091A30215
:1050F000809582238093A302982F977079F430E0F3
:10510000482F082E000C550B2417350739F08595CC
:10511000859585950E9489260C947128089580E0D4
:1051200008956FEF7FEF80E090E00C94F83380E01B
:1051300090E00E94D43321E08B3E9E4F09F020E0A6
:10514000822F089582E090E00C94C63383E090E0D3
:105150000C94C633CF9384E090E00E94C633C82FEE
:1051600081E290E00E94C6332C2F30E0A901582B39
:10517000CA01CF910895CF93C92F682F84E090E0A2
:105180000E94DA336C2F81E290E0CF910C94DA33F5
:10519000AB01BC018FE090E00C94EC33AB01BC019F
:1051A00083E190E00C94EC3360E070E0CB010C9470
:1051B000CE2860E070E0CB010E94C8280C94D4286F
:1051C0006BEE7EEF80E090E00E94F83360E082E0DA
:1051D00090E00E94DA3360E083E090E00E94DA33EE
:1051E00010929F021092A0021092A1021092A202AD
:1051F00060E084E090E00E94DA3360E081E290E0D9
:105200000E94DA3360E085E090E00E94DA3360E0EB
:1052100086E090E00E94DA336FEF87E090E00E9432
:10522000DA3340E050E0BA0188E090E00E94EC33CD
:1052300060E08DE090E00E94DA3340E050E0BA0197
:1052400088E190E00E94EC3360E087E190E00E940A
:10525000DA3340E050E0BA018CE190E00E94EC3398
:1052600060E080E290E00E94DA3340E050E0BA0172
:1052700088E190E00E94EC330C94D9280C94E0284B
:10528000682F8EE090E00C94DA33FC013296809126
:105290002D01882331F08091140387FF02C09EE125
:1052A00001C096E080E0915028F021912223D9F3AB
:1052B0008F5FF9CF0895662351F120912D012223AC
:1052C000E9F02091140327FF19C0462F4695469513
:1052D00046954E31E0F4677021E030E002C0220FC5
:1052E000331F6A95E2F7FC01E40FF11D828190E023
:1052F0002823392381E0232B69F409C0FC0132966D
:1053000008962191621729F0E817F907D1F780E094
:10531000089581E008959C01FC0132969FEF80E0A2
:105320004191461789F09F3F19F4411101C0982F10
:105330008F5F8630A9F79F3F39F0F901E90FF11D22
:1053400097FDFA956283089508959C012A5F3F4F67
:10535000FC014281461301C0128201968217930715
:10536000B9F70895262F2695269526952E3168F4AF
:10537000FC01E20FF11D677021E030E001C0220F57
:105380006A95EAF78281282B22830895262F269595
:10539000269526952E3170F4FC01E20FF11D677001
:1053A00021E030E001C0220F6A95EAF72095828162
:1053B00028232283089520912D01222329F0209172
:1053C000140327FD0C94B2290C948B2920912D01F4
:1053D000222329F02091140327FD0C94C6290C9454
:1053E000A52920912D01FC013296222331F08091D4
:1053F000140387FF02C08EE101C086E0DF011D9229
:105400008A95E9F7089508950C94032A0C94032AC9
:10541000CF930E94062A0E944B090E94042AC0E0F2
:105420008C2F0E94D608892B29F4CF5FC430C1F796
:1054300080E001C081E0CF9108950C94032A0C9480
:105440001D2A80911A03843049F10E941F2A80E0AE
:105450000E94D2061092C90220E488E190E00FB6C3
:10546000F894A895809360000FBE2093600083B7E6
:10547000817F846083BF83B7816083BF7894889580
:1054800083B78E7F83BF0FB6F894A8958091600094
:10549000886180936000109260000FBE08950C94A4
:1054A000032A0E9412220E94421D0E94D2060C94DE
:1054B0004F2A1F920F920FB60F9211248F939F9332
:1054C000AF93BF938091C902811113C080911003E3
:1054D00090911103A0911203B09113034196A11D65
:1054E000B11D8093100390931103A0931203B09306
:1054F0001303BF91AF919F918F910F900FBE0F90AB
:105500001F90189582E084BD93E095BD9AEF97BDFA
:1055100080936E0008952FB7F894809110039091B6
:105520001103A0911203B09113032FBF08952FB759
:10553000F89460911003709111038091120390917F
:1055400013032FBF08959C014FB7F8948091100367
:1055500090911103A0911203B09113034FBF821BCE
:10556000930B089578941F920F920FB60F92112407
:105570008F939F93AF93BF938091100390911103EA
:10558000A0911203B09113030196A11DB11D809348
:10559000100390931103A0931203B0931303BF91D0
:1055A000AF919F918F910F900FBE0F901F90189504
:1055B00087E797E790930108809300089AE088E1D5
:1055C0000FB6F894A895809360000FBE909360008A
:1055D000FFCF9093ED018093EC0108950C94E316B6
:1055E0000E944B098FE39CE90197F1F700C000008E
:1055F0000E944B0980E00E94D60880FF04C00E94F0
:10560000EE2A0C94D82A08950E949728811102C08E
:105610000E943E290E94A2288093C8020E94AA28C4
:1056200090931503809314030E94A628682F70E0BE
:1056300080E090E00E94082660919B0270919C029D
:1056400080919D0290919E020C9440268091EA02E6
:105650000895CF93DF9300D01F92CDB7DEB790911E
:105660001A03943011F589837B836A839093E90050
:105670008FEF9091E800815095FD06C095ED9A95C9
:10568000F1F700008111F5CF8091E80085FF0DC092
:1056900040E050E063E070E0CE0101960E94C22D30
:1056A0008091E8008E778093E8000F900F900F9024
:1056B000DF91CF910895BC0184E00C94292BBC01AB
:1056C00083E00C94292B24E02093E9002FEF309104
:1056D000E800215035FD06C035ED3A95F1F70000A0
:1056E0002111F5CF2091E80025FF0BC040E050E0EC
:1056F00066E070E00E94C22D8091E8008E77809372
:10570000E8000895CF93DF9320912D01222339F0F3
:105710002091140327FF03C060E224E002C068E088
:1057200021E02093E9002FEF3091E800215035FD72
:1057300006C035ED3A95F1F700002111F5CF209123
:10574000E80025FF1DC0EC0180912D01811105C0ED
:1057500040E050E068E070E003C070E040E050E0FE
:10576000CE010E94C22D8091E8008E778093E800E0
:1057700080E2FE01AAECB2E001900D928A95E1F779
:10578000DF91CF910895CF93603219F520911A03DC
:105790002430F9F4C091E900CF703091EC00232F50
:1057A000217030FD20E8C22B22E02093E9002091F7
:1057B000E80020FF0BC040E050E060E270E00E9493
:1057C000C22D8091E8008E778093E800CF70C0935F
:1057D000E900CF91089580911903811109C00E94B9
:1057E0009E2F0E94FB2F8091E20084608093E20054
:1057F000089510921903089508950895089542E0B8
:1058000061EC81E00E94172F42E261EC84E00E948B
:10581000172F42E261EC82E00E94172F42E260EC17
:1058200083E00C94172F80911C03833009F462C02D
:1058300030F4813071F0823009F49BC008958A30D1
:1058400009F487C08B3009F46DC0893009F0A9C014
:1058500020C080911B03813A09F0A3C08091E80029
:10586000877F8093E80080911F0390912003892B0C
:1058700021F460E28AEC92E003C060E080E090E016
:1058800070E00E94582E8091E8008B778093E800AA
:10589000089580911B03813209F083C080911F031A
:1058A00090912003009719F0029709F07AC0809137
:1058B000E800877F8093E8008091E80082FD05C0C2
:1058C00080911A038111F8CF6CC02091F300809170
:1058D000F20090E0922B029729F48091F1008B7FE7
:1058E000813021F48091F1008093EA028091E800F8
:1058F0008B7753C080911B03813A09F052C080918D
:105900001F0390912003892B09F04BC08091E80080
:10591000877F8093E8008091E80080FFFCCF809132
:105920002D0136C080911B038132D9F580911F0370
:1059300090912003892BA9F58091E800877F8093BF
:10594000E8000E944C2F80911D0380932D010C9440
:10595000122280911B03813221F58091E800877F1C
:105960008093E8000E944C2F80911E038093EB02ED
:10597000089580911B03813AA1F48091E800877F0C
:105980008093E8008091E80080FFFCCF8091EB02DB
:105990008093F1008091E8008E778093E8000C946A
:1059A0004C2F08951F93CF93DF93CDB7DEB7A09709
:1059B0000FB6F894DEBF0FBECDBF84B7877F84BF1C
:1059C0000FB6F894A895809160008861809360007C
:1059D000109260000FBE90E080E80FB6F8948093BC
:1059E0006100909361000FBE0E94CD1D0E949E2F0A
:1059F0000E94FB2F8091E20084608093E200789403
:105A00000E9490320E94D71D83E291E00E943D1DCA
:105A100013E080911A038530A9F480911A03853030
:105A200079F40E94212A809118038823B1F30E94FF
:105A3000082A882391F30E94AC2D0E941222EDCFF8
:105A40000E94512A0E94E31D80911A03843009F5B7
:105A50001093E9008091E80082FF1BC08091E8006C
:105A600085FF0AC040E050E060E270E0CE010196A0
:105A70000E940D2E91E001C090E08091E8008B77AC
:105A80008093E800992329F060E2CE0101960E94FC
:105A90009B170E94C11D0E94C01DBBCF0C94502DAE
:105AA000292F332723303105C9F060F42130310527
:105AB00081F02230310509F047C08BE590E02EE9F6
:105AC00037E046C02132310511F12232310561F152
:105AD0003BC082E190E029EF37E03AC0992781305E
